:020000040800F2
:1000000050220220890200083954000819530008C0
:10001000355400084B2900089794000800000000A0
:10002000000000000000000000000000C9010008FE
:100030001D4200080000000025020008DD730008D2
:100040000B950008A3020008A3020008A302000801
:10005000A3020008A30200088948000829490008F3
:10006000414900085949000875490008A3020008E1
:10007000A3020008A3020008A3020008A3020008CC
:10008000A3020008A3020008A3020008212B000815
:1000900051290008A3020008A30200088D490008A6
:1000A000797400087D740008A30200087B740008BE
:1000B000A1740008C1740008E5740008A3020008D8
:1000C000A3020008A3020008A3020008A30200087C
:1000D000A3020008797B0008017C0008AD7C0008C1
:1000E000A1480008A3020008A30200088D750008BB
:1000F000917500088F750008A3020008253F0008CD
:10010000A30200086959000809750008A302000845
:10011000197A00087D7A00083975000869750008A9
:10012000A3020008A3020008A3020008A30200081B
:10013000A3020008A3020008A3020008092C00087B
:100140003D2B0008A3020008A3020008C9540008C0
:10015000A3020008A3020008A3020008297D0008EA
:10016000A3020008A3020008A3020008A3020008DB
:10017000A3020008A3020008A30200080000000078
:10018000A3020008A3020008DD7A0008217B000812
:10019000A3020008A3020008A3020008A3020008AB
:1001A0000000000000000000A3020008DFF80CD0EF
:1001B00001F0F4F900480047053E010850220220F2
:1001C00072B6704762B670472C4B19680868B0E881
:1001D000F04F80F30988BFF36F8F4FF0000080F37A
:1001E000118870470000000008480068006880F32C
:1001F00008884FF0000080F3148862B661B6BFF340
:100200004F8FBFF36F8F00DF00BF00BF08ED00E02E
:10021000DFF80C00016841F470010160704700BF15
:1002200088ED00E0EFF30980BFF36F8F134B1A687E
:100230001EF0100F08BF20ED108A20E9F04F10606B
:1002400009B44FF0010080F31188BFF34F8FBFF363
:100250006F8F1CF04BF94FF0000080F3118809BC40
:1002600019680868B0E8F04F1EF0100F08BFB0EC36
:10027000108A80F30988BFF36F8F704798B600200B
:10028000EFF30580704700000648804706480047A6
:10029000FEE7FEE7FEE7FEE7FEE7FEE7FEE7FEE736
:1002A000FEE7FEE711740008AD0100089FED1A1A81
:1002B000F5EE000A40EE010ABDEEE00AF5EEC00AD6
:1002C00010EE100AF1EE10FA38BF401E00EE100AD0
:1002D0001349F7EE001AB8EEC00A30EEC00ADFED9F
:1002E0000F0A20EE200AFCEEC00A10EE900AC0F3BE
:1002F000080000EE900A01EB8000F8EE600A90ED35
:10030000011A70EE600A90ED000A71EEE01A21EE1B
:10031000800A00EE810A704783F9223E0000004403
:1003200058F50108DFED1D0AB5EEC00A60EE200A9F
:10033000BDEEE01A11EE100AF1EE10FA38BF401EC1
:1003400000EE100AB8EEC00A30EEC00ADFED140A63
:1003500020EE200AB4EEE00AF1EE10FAA8BF30EE6B
:10036000600AFCEEC00A0F49F7EE001A10EE900A80
:10037000C0F3080000EE900A01EB8000F8EE600A7E
:1003800090ED011A70EE600A90ED000A71EEE01A2D
:1003900021EE800A00EE810A7047000083F9223EB8
:1003A0000000004458F50108018042804360704716
:1003B0002DE9F04F82B0466853680193058847885D
:1003C0004B88002000900888874201BFB2F800C027
:1003D0006545528893421EBF6FF0020002B0BDE82F
:1003E000F08F9FED412A4FEA970EC7F3400B00BFF5
:1003F000DDE9000202EB800A4A6898464FF00009E6
:10040000B0EE420AB4465FEA0E0025D092ED001A23
:10041000DCED001A02EB8302DCED010A01EE810A39
:1004200092ED001A02EB8302401ED2ED001A02EB9D
:10043000830200EE810A9CED021ADCED030A00043F
:100440000CF1100C000C01EE210A92ED001A02EBE7
:10045000830200EE810AD9D117F0030026D0ACF157
:100460000404A2EB830210F0010F08D002EB830218
:10047000D4ED010A92ED001A241D00EE810A5FEA14
:100480000B0013D002EB830CD4ED010A9CED001A93
:1004900002EBC302401E00EE810AD4ED020A92ED87
:1004A000001A04F1080400EE810AEBD109F1010001
:1004B000AAEC010A1FFA80F9486800EB8902A8F14A
:1004C00001001FFA80F8B8F1000F99D1009806EBEF
:1004D0008706184480B20090681E05042D0C87D151
:1004E00002B00020BDE8F08F000000002DE9F04FC1
:1004F00002884768B0F802804888D1F8049082B03A
:100500004FF0000A1646824207BF098888456FF0FF
:10051000020002B018BFBDE8F08F4FEA980B02EB63
:1005200042000190C8F34000CDF8000009EB8A01B9
:10053000BBF1000F33D0019801EB820C01EB80047A
:100540003B46E64601EBC2054FEA0B0093ED000A7D
:10055000401E81ED000A93ED010A01EB02118CEDC2
:10056000000A93ED020A0CEB021C85ED000A93EDE4
:10057000030A05EB021584ED000A04EB021403F1F3
:100580001003E3D10EEB820000EB820000EB82014E
:10059000ABF10100504307EB0B1701EB001118F012
:1005A000030C21D03B1FA1EB82011CF0010F06D0F0
:1005B00093ED010A01EB82011B1D81ED000A0098F9
:1005C00080B100BF93ED010A01EB820401EBC2018F
:1005D00084ED000A93ED020A401E81ED000A03F14A
:1005E0000803EFD107EB8C070AF101001FFA80FA2C
:1005F000701E0604360C99D102B00020BDE8F08FC1
:100600008A0817D0B2F1004F31D2002AC4BF034686
:1006100094460FDDF0EE400AC3ED000AC3ED010A77
:10062000C3ED020AC3ED030A1033BCF1010CF1D192
:1006300000EB021011F0030108BF7047B1F1004F49
:1006400023D20029D8BF7047021F11F0010F1CBF31
:1006500082ED010A121D480808BF704782ED010AA9
:1006600082ED020A401E02F10802F7D17047F0EE57
:10067000400AC0ED000AC0ED010AC0ED020AC0ED5B
:10068000030A1030521EF2D1D4E7A0EC010A491E31
:10069000FBD170472DE9F0410024061B254671F17E
:1006A000000605DA01240027D0EB070067EB010103
:1006B000161E73F1000605DA0027D2EB07020125AA
:1006C00067EB030300F0D4FC86460E4617469C46B3
:1006D000AC4204D00025D0EB050E65EB010624B139
:1006E0000020D2EB000760EB030C704631463A461F
:1006F0006346BDE8F08100000649074A0868504398
:1007000043F239021044086040087047014908600C
:100710007047000044B700206D4EC64140EA010317
:100720009B0703D009E008C9121F08C0042AFAD2A7
:1007300003E011F8013B00F8013B521EF9D270476B
:10074000D2B201E000F8012B491EFBD27047002213
:10075000F6E710B513460A4604461946FFF7F0FFC0
:10076000204610BD421E12F8013F002BFBD111F8AC
:10077000013B02F8013B002BF9D17047034611F809
:10078000012B00F8012B002AF9D1184670472DE9FA
:10079000F0410546002090460E46044600E0641CE9
:1007A00044450BD2285D00F0B5FC0746305D00F0F3
:1007B000B1FC381A02D1295D0029F0D1BDE8F081E1
:1007C0000FB400B58DB010A909900B9000914FF0B7
:1007D000FF300A9000200C900548069005480790CD
:1007E0006A4609A80F9900F0F3FD0DB05DF814FBFF
:1007F000ED1300080B1400082DE9FF5FD2E901A7F3
:100800004FF00008916999461446DDF838B0464625
:1008100001988847054659EA0B0005D009E0A1690F
:10082000761C019888470546216A28468847002893
:10083000F5D1681C03D05FEACA7005D015E04FF00F
:10084000FF3004B0BDE8F09F2068011D2160D0F8A2
:1008500000800AE05FEACA7001D108F8015BA16973
:10086000761C7F1E019888470546002F1ADD681CFC
:1008700018D0B9F1000F0DD0E81705EBD060421188
:1008800020F01F0059F822102A1A0120904001423E
:10089000E0D107E0BBF1000FDCD1216A2846884790
:1008A0000028D7D0E16901988847BBF1000F07D134
:1008B000002E05DD5FEACA7002D1002188F8001021
:1008C000A068B84203DDBBF1000F03D017B16FF091
:1008D0000100B6E73046B4E72DE9FF4F087883B052
:1008E0009946FF2805D0491C2D2804D0002400205B
:1008F00008E000200BE00124F9E700EB800003EBA7
:100900004000491C0B78FF2BF7D104B14042002373
:100910000293147819461D462D2C01D02B2C04D19E
:10092000521C2D2C13D000240294AA461478FF2CBC
:100930000FD00A25A3FB057801FB05814FF0000CC1
:1009400003FB0C11521CE3194AEB0101EEE70124F1
:10095000EAE7814453EA010002D019F5C87F06DABC
:1009600003980021C0E9001107B0BDE8F08F002511
:10097000AE4E2F46DFF8B882184600F0EBFDCDE909
:100980000001B9F1000002DAC9F1000400E00446F8
:100990000023A74A1AEB030B42EB045A12E0E007CC
:1009A00007D02A4633463846414600F0ECF9074660
:1009B00088462A4633461046194600F0E4F90546B3
:1009C0000E466410002CEAD1DDE90001B9F1000FF8
:1009D0005A46534606DA00F048FA3A46434600F0D3
:1009E00044FA05E000F0CFF93A46434600F0CBF96F
:1009F000029A0AB181F00041039AC2E90001B3E70B
:100A00002DE9FF4F1F468DB0D7E901464FF0FF3863
:100A10002E2045464FF000090B90B9696D1C0E98C9
:100A20008847396A824688470028F6D1BAF1FF3FE5
:100A30000AD024F4D064002E11DDBAF12B0F08D0B7
:100A4000BAF12D0F0BD102E0404611B08DE744F40E
:100A50008064B9696D1C0E9888478246761E694687
:100A6000600501D52D2000E02B208DF8000001F15C
:100A7000010B0DF1200809E0B9696D1C0E9888473B
:100A800082460F9844F40074761E0560002E02DD45
:100A9000BAF1300FF0D00B998A453ED144F0800472
:100AA00006E00F99681CA9F1010944F4007408607C
:100AB000B9696D1C761E0E98884782463028F0D0A2
:100AC0002BE00B998A4505D1200603D444F080041D
:100AD000761E18E0504609F0D1FE08B30DF113015F
:100AE000761E44F400748B4508D2AAF130000BF84E
:100AF000010B200607D5A9F1010003E0200602D46E
:100B000009F101008146A00502D50F99681C086013
:100B1000B9696D1C0E9888478246002ED1DC53E0DF
:100B2000002E51DDBAF1650F02D0BAF1450F4BD15D
:100B3000A00549D5B9696D1C24F44074761E0E9841
:100B400088478246002E0CDD2B2804D0BAF12D0FE9
:100B500007D144F48074B9696D1C0E9888478246A9
:100B6000761EE00501D52D2100E02B2108F8011BA0
:100B7000CDF82C8021E00DF12901761E44F400749B
:100B800088450CD2AAF1300010F0FF0088F8000070
:100B900002D10B99884509D908F1010806E0E00562
:100BA00001D5244801E042F20F708146B9696D1CFD
:100BB0000E98884782460F980560002E04DD504647
:100BC00009F05CFE0028D6D1F9690E988847FF200D
:100BD0008BF8000088F800000020069007904B4634
:100BE0006A4608A906A8FFF777FEA00502D46FF0B1
:100BF00001002AE714F0240F0AD0E00714D1DDE940
:100C000006123868031D3B600068C0E900120BE063
:100C1000DDE9060100F0FAF90146E00704D1386881
:100C2000021D3A600068016028460EE7000014408B
:100C30000000F03FF1D8FFFF2DE9FE4F804681EA2A
:100C40000300C00F0C46009021F0004123F0004546
:100C5000B8EB0200A94105D24046214690461C4609
:100C60000B46024623F00040104347D0270DC7F340
:100C70000A00C3F30A510290401A019040286BDA2F
:100C8000C3F3130040F4801B0098924620B1002368
:100C9000D2EB030A63EB0B0B01985946C0F14002FB
:100CA000504600F016FA06460D4650465946019A3F
:100CB00000F01EFA10EB08006141002487EA11528F
:100CC00084EAE7731A4340D0009A62B3019A012A7A
:100CD0004FEA075215DC001B61EB02014FF00042A6
:100CE00002EA0752CDE90042001C41F5801132466C
:100CF0002B4600F0E1FB03B0BDE8F08F40462146F3
:100D0000F9E7001B61EB0201001C41F5801300189C
:100D10005B412018A2F5001747EB030140EAD570AC
:100D2000B6196D4111E06D084FEA360645EAC07507
:100D30004FEA0752001B61EB0201001C41F58011D4
:100D400049084FEA30000019514132462B4603B0A2
:100D5000BDE8F04F00F0A1BB009801224000002345
:100D6000D0EB020263EBE073009821464FEAE07497
:100D7000B8EB000061EB0401E9E783F000435BE7B7
:100D800081F0004158E72DE9FE4F81EA030404F0A9
:100D9000004421F0004100944FF0000B23F0004389
:100DA00050EA01045ED052EA03045BD0C3F30A5454
:100DB000C1F30A552C44A4F2F3340194A0FB02546D
:100DC000C1F3130141F48011C3F3130343F48013FF
:100DD00001FB024400FB034E840A970A44EA815453
:100DE00047EA8357A4FB076802958D0A05FB078530
:100DF0004FEA932C04FB0C542705029D4FEA06583A
:100E000047EA1637B5EB08056EEB070C870E920E16
:100E100047EA811742EA8312A7FB0201B6EB0B01F6
:100E200064EB00042B0D43EA0C335E1844EB1C50BA
:100E3000DA465146E7FB0201C5F313044FEA0B33D0
:100E400043EA14534FEA0432019C43EA0603A4F137
:100E50000C040294009CCDE900B400F02DFB03B01B
:100E6000BDE8F08F00200146F9E72DE9F04D81EA59
:100E7000030404F0004B21F0004514464FF0000A33
:100E800023F0004150EA050220D054EA01021DD0AF
:100E9000C5F30A570246C5F31303C1F31300C1F3A8
:100EA0000A5640F4801543F48013A7EB0608101B84
:100EB000D64608F2FD3873EB050002D308F10108AD
:100EC00001E092185B41B8F1000F03DA00200146FF
:100ED000BDE8F08D00204FF48011064684460EE0F8
:100EE000171B73EB050705D3121B63EB05030643C2
:100EF0004CEA010C49084FEA300092185B4150EA75
:100F00000107EDD152EA030012D082EA040083EA1D
:100F10000501084305D0101BAB4106D20122002376
:100F200006E000224FF0004302E06FF00102531090
:100F30001AEB06004CEB085110EB0A0041EB0B01D9
:100F4000BDE8F04D00F0A9BA0EB5C10F80EAE0701F
:100F50000844CA07002140F233438DE80E000A46D8
:100F60000B4600F0A9FA03B000BD0EB540F23341C4
:100F700002910021CDE900110A460B4600F09CFACF
:100F800003B000BD00F0004230F000400AD0C10DB7
:100F900001F56071C0F3160042EA0151C208400732
:100FA00011437047002001467047000030B5041E11
:100FB00071F1000404DB4FF00044404264EB010196
:100FC000141E73F1000405DB1C464FF0004352422F
:100FD00063EB04038B4208BF824230BD30B5041E70
:100FE00071F1000404DB4FF00044404264EB010166
:100FF000141E73F1000405DB1C464FF000435242FF
:1010000063EB0403994208BF904230BD01F00043F6
:1010100030B421F0004150EA010206D00A0DA2F5D9
:101020006072C1F31301002A02DC30BC002070475B
:10103000440F44EAC104C100E01830BC00EBC250C8
:1010400000F0F4B930B50B460146002020220124FF
:1010500009E021FA02F59D4205D303FA02F5491B86
:1010600004FA02F52844151EA2F10102F1DC30BD9C
:101070002DE9F05F0546002092469B4688460646CD
:10108000814640241BE0284641464746224600F060
:1010900097FA53465A46C01A914110D31146184642
:1010A000224600F016F82D1A67EB01084F4622463B
:1010B0000120002100F00DF817EB00094E41201E21
:1010C000A4F10104DFDC484631462A464346BDE828
:1010D000F09F202A04DB203A00FA02F1002070473A
:1010E0009140C2F1200320FA03F319439040704766
:1010F000202A06DBCB17203A41FA02F043EAE073DC
:1011000006E041FA02F3D040C2F1200291400843C8
:1011100019467047A0F14101192900D820307047C5
:101120002DE9FF4F1C4681B00021D4E901679146AB
:101130004FF0FF358A468846A1696D1C02988847A2
:10114000216A834688470028F6D1BBF1FF3F0CD0C7
:1011500026F4C066002F1ADD700615D5BBF12B0FE3
:101160000AD0BBF12D0F0FD104E04FF0FF3005B0D6
:10117000BDE8F08F46F48066A1696D1C029888472F
:101180007F1E8346002F02DDBBF1300F03D0B9F183
:10119000000F2AD025E0A1696D1C46F400767F1E61
:1011A000029888478346002F05DDBBF1780F06D0F3
:1011B000BBF1580F03D0B9F1000F10D011E0B9F115
:1011C000000F02D0B9F1100F0BD1A1696D1C26F4EC
:1011D00000767F1E029888478346102000E0082092
:1011E00081464FEAE970009017E00A20F8E743468D
:1011F000AAFB092803FB0980DDF800C07F1E0AFB5B
:101200000C0112EB0B0A41EBEB78A16946F4007676
:1012100005F10105029888478346002F06DD4946FF
:10122000584600F0E2F95FEA000BE0D5E169029868
:101230008847B00502D46FF0010098E7F00718D195
:10124000700610D57005514605D50023D1EB03017A
:1012500063EB080200E042462068031D236000683B
:10126000C0E9001205E02068011D21600068C0E9A6
:1012700000A828467BE72DE9FF5F1D464FF0FF3BA6
:10128000D5E9014691465F464FF00008A9697F1CE9
:1012900001988847296A824688470028F6D1BAF122
:1012A000FF3F0CD024F4C064002E19DD600614D575
:1012B000BAF12B0F09D0BAF12D0F0ED103E0584629
:1012C00004B0BDE8F09F44F48064A9697F1C0198D4
:1012D0008847761E8246002E02DDBAF1300F03D019
:1012E000B9F1000F26D032E0A969761E44F40074EB
:1012F0007F1C019888478246002E05DDBAF1780FE1
:1013000006D0BAF1580F03D0B9F1000F10D01EE08B
:10131000B9F1000F02D0B9F1100F18D1A969761EEA
:1013200024F400747F1C019888478246102002E054
:10133000082000E00A20814609E008FB0908A969A5
:10134000761E44F400747F1C019888478246002E64
:1013500005DD4946504600F048F90028EDDAE96914
:1013600001988847A00502D46FF00100A8E7E007C4
:1013700025D1600613D5600502D5C8F1000000E054
:10138000404629680A1D2A600968220501D50870AF
:1013900015E0220701D5088011E008600FE02868F9
:1013A000011D29600068210502D580F8008006E053
:1013B000210702D5A0F8008001E0C0F8008038467F
:1013C0007EE70000026811441378016018467047F8
:1013D000D160044951610449116200211161114633
:1013E00000F012B9C5130008E1150008426842B1C7
:1013F000016811F8013B23B1521EC0E900121846E2
:1014000070470121C160881E704742685AB1C368A5
:10141000016843B983688B4205D0491E521CC0E95C
:101420000012002070474FF0FF3070470029A8BF1E
:101430007047401C490008BF20F00100704710B4FD
:10144000B0FA80FC00FA0CF050EA010404BF10BCB2
:10145000704749B1CCF1200421FA04F411FA0CF1DF
:1014600018BF012121430843A3EB0C01CB1D4FEA18
:1014700000614FEA102042BF002010BC704700EB13
:10148000C35010440029A4BF10BC7047401C490041
:1014900008BF20F0010010BC704710B5141E73F196
:1014A000000408DA401C41F1000192185B411A4324
:1014B00001D120F0010010BD2DE9F04D92469B4670
:1014C00011B1B1FA81F202E0B0FA80F22032904616
:1014D000FFF7FFFD04460F4640EA0A0041EA0B0110
:1014E00053465A46084313D0114653EA010019D017
:1014F000C8F14002504600F063F805460E465046DB
:1015000059464246FFF7E5FD084305D0012004E0B7
:1015100020463946BDE8F08D0020054346EAE076D6
:101520002C4337430A986305E40AA0EB0800002225
:10153000FD0A44EA47540A3002D500200146E9E793
:10154000010510196941DDE9084500196941BDE847
:10155000F04DA2E70EB540F2334202920022CDE9EF
:1015600000221346FFF7A8FF03B000BDC1F30A52E3
:10157000C1F3130140F2FF3341F480119A4202DAC1
:1015800000200146704740F233439A42A2F23342B0
:1015900002DC524200F014B8FFF79BBD064C074D29
:1015A00006E0E06840F0010394E807009847103433
:1015B000AC42F6D3FEF7FEFD9C0B0208BC0B020802
:1015C000202A04DB203A21FA02F00021704721FA98
:1015D00002F3D040C2F120029140084319467047FF
:1015E000C0B24FF4F05100F0C5B93A2800D23038FB
:1015F00020F02002412A01D3A2F13700884201D312
:101600004FF0FF30704700002DE9F34F8BB04FF0E3
:10161000000801F10C000C464FF0010B46460DF19D
:10162000080A01906269012101989047051E2DD09A
:10163000252D2CD0216A8847C0B16269012101980B
:101640009047216A88470028F7D1411E62690198B6
:10165000904700E0761CA1690B988847216A88476B
:101660000028F7D1E1690B988847DBE7A1690B985F
:1016700088470746A84201D1761CD3E7E1690B9859
:1016800088477F1C02D1B8F1000F6FD046E10027D8
:1016900062693D463946019890472A2804D162691B
:1016A0000121019890470125DFF8849262690121A8
:1016B00001989047A0F130010A290AD24F45E5DC94
:1016C00007EB870100EB4107303FDFD445F0100501
:1016D000ECE7E90601D46FF000476C280AD04C28EB
:1016E00014D0682815D06A280DD074281CD07A2808
:1016F0001AD01DE062690121019890476C2802D040
:1017000045F0040514E045F002050DE045F0200524
:101710000AE06269012101989047682802D045F0EB
:10172000080505E045F400656269012101989047CC
:10173000C4E9015765283DD019DC58287AD00CDC63
:10174000452837D004DC252826D0412831D131E086
:1017500046282FD047282CD12CE05B2877D0612851
:1017600028D063287CD0642823D15AE0D0E06F28A9
:1017700048D008DC66281DD067281BD0692821D0F6
:101780006E2816D127E0702845D0732868D07528B8
:1017900047D078280DD14DE0A1690B9888470546C0
:1017A00025283FF469AFE1690B9888476D1C3FF429
:1017B0006AAFB3E023466A466FF001000B99FFF76A
:1017C0001FF99EE045F040006060A80723464FF0F7
:1017D000000236D43EE0E8077FF447AF2068011DE1
:1017E00021600068290501D506701BE7290701D58E
:1017F000068017E7A90703D5F117C0E9006111E7D3
:1018000006600FE745F040006060A80723464FF0F0
:10181000080216D41EE040F60E0125EA01006060C1
:1018200016E045F040006060A80723464FF00A022A
:1018300007D40FE045F040006060A80708D52346B4
:1018400010226FF001000B99FFF76AFC59E007E0E6
:10185000234610226FF001000B99FFF70CFD50E0BA
:101860004FF000094F464B46632802D05B2806D054
:1018700040E0E80601D40120A06001273AE0626957
:101880000121019890475E2805D14FF00109626956
:10189000494601989047216939B900210A465346C3
:1018A00043F82120491C0829FADBB0B3216969B942
:1018B000C11700EBD16253110AEB830122F01F0222
:1018C000821A01200B68904003430B60626901217A
:1018D000019890475D28E8D1B9F1000F09D00020A8
:1018E000514651F82020D24341F82020401C0828BE
:1018F000F7DB02AB224600976FF001000B99FEF771
:101900007BFF00280CDA401C08D1BBF1000F05D08A
:101910004FF0FF300DB0BDE8F08FFFE74046F9E72C
:10192000E90701D108F1010806444FF0000B79E600
:10193000CCCCCC0C70B5C1F30A5201F000450024A8
:10194000C1F3130140F2FF3341F480119A4201DAEE
:10195000002070BD40F233439A42A2F2334203DCCE
:101960005242FFF72DFE00E090402C43F1D0404260
:1019700070BD00007F2801D9002208E0064A02EB72
:101980005002C007127800D1120902F00F020120A4
:10199000904008407047000038FF010870B58C186F
:1019A00010F8015B15F0070301D110F8013B2A1173
:1019B00006D110F8012B03E010F8016B01F8016B60
:1019C0005B1EF9D12B0705D40023521E0DD401F85C
:1019D000013BFAE710F8013BCB1A921C03E013F825
:1019E000015B01F8015B521EF9D5A142D8D300205A
:1019F00070BD21B1826842F00102826003E082681A
:101A000022F00102826070470021084A1168084AEA
:101A10001140D0E900231A4383681A43C3681A436C
:101A20001143044AC2F80413704700000423014024
:101A3000E030FCFF0020014021B1826842F4807256
:101A4000826003E0826822F480728260704721B174
:101A5000826842F40072826003E0826822F40072BD
:101A60008260704730B50246002000235068104C59
:101A700020400D790C6844EA0524204350609068AA
:101A80000C4C2040D1E903542C438D682C434D79F4
:101A900044EA450420439060D06A20F470000C7D35
:101AA000641EE4B2234340EA0350D06230BD00001C
:101AB000FFFEFFFCFDF7FFC0F0B504460D46002019
:101AC0000021092D11DDE068A5F10A0606EB4607A5
:101AD000072606FA07F18843A5F10A0606EB460633
:101AE00003FA06F10843E0600CE0206905EB4507C6
:101AF000072606FA07F1884305EB450603FA06F1C7
:101B000008432061072A0FDA606B561E06EB860732
:101B10001F2606FA07F18843561E06EB860605FACD
:101B200006F10843606322E00D2A0FDA206BD61F0E
:101B300006EB86071F2606FA07F18843D61F06EB39
:101B4000860605FA06F10843206310E0E06AA2F178
:101B50000D0606EB86071F2606FA07F18843A2F159
:101B60000D0606EB860605FA06F10843E062F0BDB5
:101B7000816841F0804181607047000070B5054682
:101B80000C4600260DB1022C00D870BDA11E0648DF
:101B90000288284603F094FB0646A01E2E54310A04
:101BA000601E295400BFF0E7DAB5002070B5054685
:101BB0000C4600260DB1022C00D870BD611EFF221C
:101BC000284603F097FB0646601E2E5400BFF4E73C
:101BD0002DE9F04F89B004460D4616461F46DDE953
:101BE00014ABDDE912890E2204F10C0101A8FEF705
:101BF00095FD206800F052F82749606800F018F958
:101C00002549A06800F014F9206801F08FFB0090CE
:101C10006068009903F09AF9206801F087FB009052
:101C2000A068009903F092F900208DF81E000120B1
:101C30008DF81F0000208DF820008DF821008DF810
:101C400022008DF823008DF81A908DF81B508DF826
:101C50001C708DF81D60ADF8188006A9206801F091
:101C60006EF901A801F04EF801220221206801F06E
:101C70005DF9206801F066FA8DF814008DF815A062
:101C80008DF816B001208DF8170005A803F0D6FBDB
:101C900009B0BDE8F08F00000100020070B50546F4
:101CA0000748854202D14FF0007404E005488542A0
:101CB00001D14FF0C0640121204603F01DFC70BD2E
:101CC0000064004000680040F0B58FB004460D4647
:101CD00016461F461A492068884204D90121880502
:101CE00003F0FAFB03E00121480503F0F5FB20684F
:101CF00002F074F900BF206802F027FA0028FAD138
:101D0000606800900195029600200390049705906A
:101D10004FF48060069000200790089009904FF4DF
:101D200080300A9000200B9003200C9000200D9032
:101D30000E906946206802F045FA0FB0F0BD000031
:101D400000640240F0B58FB004460D4616461F46AB
:101D50001A492068884204D90121880503F0BCFB98
:101D600003E00121480503F0B7FB206802F036F9D3
:101D700000BF206802F0E9F90028FAD160680090FD
:101D800001950296402003900497002005904FF49F
:101D90008060069000200790089009904FF48030F2
:101DA0000A9000200B9003200C9000200D900E90C4
:101DB0006946206802F006FA0FB0F0BD00640240E8
:101DC0002DE9FE4304460D4616461F4602212046D5
:101DD00000F02EF80121880303F09EFB204603F05B
:101DE000C2F800F0FF08204603F010F98146414692
:101DF00005F05EFA6068009000208DF804008DF810
:101E0000055001208DF80600684602F0E7FD2046E7
:101E100003F046F98DF808008DF809608DF80A7016
:101E200001208DF80B0002A803F008FBBDE8FE833B
:101E30002DE9FC4180460D46C5F3074030B101282D
:101E400006D0022806D0032808D105E0002405E0CA
:101E5000012403E0022401E0032400BF00BFC5F316
:101E6000072010B1012804D101E0002701E001277B
:101E700000BF00BFE8B220B1012804D0022806D17B
:101E800003E0002603E0012601E0022600BF00BFB8
:101E9000404600F013F8D8F8040000908DF8044094
:101EA0008DF8067003208DF805008DF807606946EF
:101EB000D8F8000002F08CFFBDE8FC8170B5054643
:101EC0001C492868884201D101242EE01A4928685B
:101ED000884201D1022428E018492868884201D1AB
:101EE000042422E016492868884201D108241CE015
:101EF00014492868884201D1102416E01249286844
:101F0000884201D1202410E010492868884201D17C
:101F100040240AE00E492868884201D1802404E068
:101F20000C492868884200D184150121204603F01D
:101F3000D3FA70BD000002400004024000080240D5
:101F4000000C024000100240001402400018024041
:101F5000001C02400020024030B585B004462068D5
:101F600000F052F84FF001116068FFF761FF25495A
:101F7000A068FFF75DFF2349E068FFF759FF21499B
:101F80002069FFF755FF206805F066F905462946E8
:101F9000A06802F0DBFF206805F05EF905462946DF
:101FA000E06802F0D3FF206805F056F9054629469F
:101FB000206902F0CBFF0020ADF800004FF48270E2
:101FC000ADF802000020ADF804000220ADF80600D4
:101FD0000120ADF808004002ADF80A003820ADF845
:101FE0000C000020ADF80E000720ADF81000694687
:101FF000206805F013F90121206805F003F905B008
:1020000030BD00000100020010B5044617488442AC
:1020100004D10121801403F07FFA26E014488442A1
:1020200004D10121001403F067FA1EE01148844234
:1020300004D10121C01303F05FFA16E00E48844278
:1020400004D10121401403F067FA0EE00B488442EA
:1020500004D10121080503F05FFA06E00848844234
:1020600003D10121480503F057FA10BD00300140AB
:1020700000380040003C0040003401400050014066
:102080000054014002460B46002105E0481CC1B245
:10209000C82901DD002070471068008900F00200A7
:1020A0000028F3D010688381002105E0481CC1B2EC
:1020B000C82901DD0020EEE71068008900F001006A
:1020C0000028F3D010688089C0B2E4E770B50446F8
:1020D0000D46206800884FF6C771084021680880C7
:1020E000206800882843216808800121206805F0C5
:1020F00089F870BD2DE9F04F89B082468846914637
:102100001C4612ADE0CD504600F094F884B1484929
:102110002046FFF78DFE504605F0D8FB834620464B
:1021200002F0C1FE00905A462068009902F098FE25
:1021300085B13F492846FFF77BFE504605F0C6FBB8
:102140008346284602F0AFFE00905A462868009960
:1021500002F086FE86B136493046FFF769FE5046EA
:1021600005F0B4FB8346304602F09DFE00905A46CF
:102170003068009902F074FE87B12D493846FFF7A8
:1021800057FE504605F0A2FB8346384602F08BFE10
:1021900000905A463868009902F062FEADF8189037
:1021A0000020ADF81A00CDF81C80ADF8200006A97B
:1021B000504605F0DFFB6020ADF804000120ADF8CB
:1021C00006000020ADF810003CB101A9504605F012
:1021D00031FA0821504605F06BFA3DB101A950468D
:1021E00005F070FA0821504605F0BEFA3EB101A98B
:1021F000504605F0C7FA0821504605F013FB3FB1E1
:1022000001A9504605F018FB0821504605F050FB87
:102210000121504605F0BDF90121504605F0CBF9EA
:102220000121504605F0D3F909B0BDE8F08F000058
:102230000100020010B504463748844204D1012150
:10224000084603F069F966E0B4F1804F04D101213A
:10225000084603F051F95EE03048844204D1012180
:10226000022003F049F956E02D48844204D10121AF
:10227000042003F041F94EE02A48844204D10121B0
:10228000082003F039F946E02748844204D10121AF
:10229000102003F031F93EE02448844204D10121AA
:1022A000202003F029F936E02148844204D101219D
:1022B000022003F031F92EE01E48844204D10121AE
:1022C000080403F029F926E01B48844204D10121C7
:1022D000480403F021F91EE01848844204D101218A
:1022E000880403F019F916E01548844204D101214D
:1022F000402003F001F90EE01248844204D101218C
:10230000802003F0F9F806E00F48844203D1012150
:10231000801503F0F1F810BD0000014000040040FA
:1023200000080040000C0040001000400014004075
:1023300000040140004001400044014000480140C9
:1023400000180040001C00400020004070B504460A
:102350000D4600261548406F08B1012070BD0021D0
:102360001248703001F02EFE0AE0701CC6B2C82E72
:1023700006DD01210D48703001F024FE0220EDE75A
:102380000A48703001F0E1FE0028EED10849074804
:10239000703001F0E3FD0548C4674567012103483B
:1023A000703001F00FFE0020D8E70000006002400E
:1023B0003000002070B504460D460026174800681E
:1023C00008B1012070BD00211448001F01F0FAFD82
:1023D0000AE0701CC6B2C82E06DD01210F48001F9E
:1023E00001F0F0FD0220EDE70C48001F01F0ADFE0A
:1023F0000028EED14FF030510848001F01F0AEFD2B
:102400000648083004600548BC38C0F8BC500121BB
:102410000248001F01F0D6FD0020D3E7BC60024057
:1024200070B504460D4600261548C06A08B1012063
:1024300070BD00211248283001F0C4FD0AE0701C74
:10244000C6B2C82E06DD01210D48283001F0BAFDC4
:102450000220EDE70A48283001F077FE0028EED18F
:1024600008490748283001F079FD05484463C562F2
:1024700001210348283001F0A5FD0020D8E7000025
:1024800000600240000C001070B504460D460026A6
:102490001548406908B1012070BD00211248103074
:1024A00001F090FD0AE0701CC6B2C82E06DD0121C5
:1024B0000D48103001F086FD0220EDE70A4810308B
:1024C00001F043FE0028EED108490748103001F022
:1024D00045FD0548C461456101210348103001F004
:1024E00071FD0020D8E700000060024030000010BD
:1024F00070B504460D4600261648006808B1012054
:1025000070BD00211348001F01F05CFD0AE0701C43
:10251000C6B2C82E06DD01210E48001F01F052FD93
:102520000220EDE70B48001F01F00FFE0028EED15E
:102530004FF030510748001F01F010FD05480830EA
:102540000460044805600121001F01F03BFD0020EC
:10255000D6E70000BC64024070B504460D46002674
:102560001748006808B1012070BD00211448001F01
:1025700001F028FD0AE0701CC6B2C82E06DD01215C
:102580000F48001F01F01EFD0220EDE70C48001F60
:1025900001F0DBFD0028EED10A490948001F01F0D7
:1025A000DDFC0748083004600548A438C0F8A45092
:1025B00001210348001F01F005FD0020D4E70000C1
:1025C000A46002400000302070B504460D4600268D
:1025D0001548C06D08B1012070BD00211248583067
:1025E00001F0F0FC0AE0701CC6B2C82E06DD012125
:1025F0000D48583001F0E6FC0220EDE70A4858305B
:1026000001F0A3FD0028EED14FF0E051064858300C
:1026100001F0A4FC04484466C56501210248583015
:1026200001F0D0FC0020D7E70060024070B50446FE
:102630000D4600261548006808B1012070BD002134
:102640001248001F01F0BEFC0AE0701CC6B2C82E82
:1026500006DD01210D48001F01F0B4FC0220EDE76A
:102660000A48001F01F071FD0028EED10849074813
:10267000001F01F073FC0548083004600348056042
:102680000121001F01F09EFC0020D7E7A464024056
:10269000000030202DE9F04104460D461646002783
:1026A0002448844205D131462846FFF721FF0746DA
:1026B0003DE02148844205D131462846FFF74CFFD2
:1026C000074634E01D48844205D131462846FFF7CD
:1026D0007BFF07462BE01A48844205D13146284645
:1026E000FFF734FE074622E01648844205D1314602
:1026F0002846FFF75FFE074619E01348844205D1DC
:1027000031462846FFF792FF074610E00F48844203
:1027100005D131462846FFF783FE074607E00C48FF
:10272000844204D131462846FFF7AEFE07463846BC
:10273000BDE8F08100100140004400400048004026
:10274000004C004000500040001401400078004060
:10275000007C0040F0B585B004460D461646201DAD
:102760000FC88DE80F00206800F054F8606918B1B8
:1027700027496069FFF75CFBA06918B12449A0698B
:10278000FFF756FB606938B1206805F069FD074620
:102790003946606902F0DAFBA06938B1206805F0BB
:1027A0005FFD07463946A06902F0D0FB6946206804
:1027B00005F05EFBFF2D16D0FF2E14D0206805F02B
:1027C00015FD8DF810008DF811508DF81260012064
:1027D0008DF8130004A802F031FE012240F22441DA
:1027E000206805F01FFB606920B10122802120686C
:1027F00005F0E5FAA06920B101224021206805F02A
:10280000DEFA0121206805F0CEFA05B0F0BD000027
:102810000100020010B504461F48844204D1012182
:10282000102002F079FE36E01C48844204D10121D8
:10283000480402F061FE2EE01948844204D10121CF
:10284000880402F059FE26E01648844204D1012192
:10285000C80402F051FE1EE01348844204D1012155
:10286000080502F049FE16E01048844204D1012117
:10287000202002F051FE0EE00D48844204D10121D7
:10288000880702F039FE06E00A48844203D101219C
:10289000400502F031FE10BD001001400044004030
:1028A00000480040004C004000500040001401402F
:1028B00000780040007C00402DE9F041044620688B
:1028C00005F040FB0646206805F056FC0546402111
:1028D000206805F0CBFB0746ABB22068011D3246ED
:1028E0003846FFF7F1F901224021206805F067FA28
:1028F000BDE8F08130B50B4600210BE05C5C05685B
:10290000AC8000BF0468248804F04004002CF9D097
:102910004C1CE1B29142F1DB30BD70B50446206839
:1029200005F05AFB05468021206805F09FFB06460E
:102930002068011D00232A463046FFF703FA0122D2
:102940008021206805F03BFA70BD00BFFEE7000063
:1029500000B585B00221654800F058FA00287DD006
:102960000421624800F07AF96149604800F05AF9A0
:102970006A4600215D4800F06CFB40F20622009898
:10298000811A904253D008DCA0F20120052866D2BB
:10299000DFE800F0101112132F00032975D004DCBA
:1029A00001297CD002295AD183E0042961D0FB2976
:1029B000F9D188E000BF00BF00BF0098401E4D491C
:1029C00008704D480A46127800EBC201684614F0C0
:1029D000E5FC4848007800EB4001484850F82100E9
:1029E000401C4449097801EB4102444941F8220066
:1029F00078E043480079032803D1424968460EF045
:102A000087FB3F480079012807D03D480079062818
:102A100003D03B480079052808D13B49684614F0AB
:102A2000BDFC3A48406A401C384948625AE0344884
:102A30000079032803D1364968460EF069FB304817
:102A40000079012807D02E480079062803D02C48A9
:102A5000007905280CD12C49083101E043E040E021
:102A6000684614F09BFC2948006B401C274908630A
:102A700038E0274968460EF04BFB2648006F401CA3
:102A8000244908672EE000E009E01E4968460EF080
:102A90003FFB2048406E401C1E49486622E01E490C
:102AA000684612F061FF1948806C401C1749886421
:102AB00018E01A49684612F057FF1448C06B401CD2
:102AC0001249C8630EE00DF10B0012F0ABFF0B488A
:102AD000E038D0F81001401C0849E039C1F8100175
:102AE00000E000BF00BF05B000BD00000064004072
:102AF0000800003258B6002064CF0020B0B9002092
:102B000010C70020ACCF002054CF002088C3002085
:102B100084CF0020C8BA002018B6002020B60020BC
:102B200010B50121044800F071F918B101210248E3
:102B300000F094F810BD00000064004000B585B0BE
:102B400002212B4800F062F900284FD002212848CA
:102B500000F084F86A460021254800F07AFA40F235
:102B600007220098811A90422BD009DCA0F20120A4
:102B700078B101280ED0022819D0032834D11BE0E7
:102B8000012923D0A1F2FB3131B3B1F5807F2BD1E4
:102B900026E000BF0098401E1649087016480A46F5
:102BA000127800EBC201684614F0F8FB1DE01349EF
:102BB000684614F0F3FB18E01149684614F0EEFB88
:102BC00013E01049684614F0E9FB0EE00D490831A6
:102BD000684614F0E3FB08E0684614F011FB04E0DB
:102BE000684612F0AFFE00E000BF00BF05B000BDB8
:102BF0000068004059B6002054CF002028B60020BD
:102C000030B6002094D0002010B50121044800F017
:102C1000FDF818B10121024800F020F810BD0000B5
:102C20000068004000220C4B994202D100238361CE
:102C300011E0C1F3130201F000730BB1C2600AE0AE
:102C400001F080630BB1026105E001F000630BB19C
:102C5000826000E0426070477000F030B1F5007FA4
:102C60003AD00FDC202928D006DC01291CD0042909
:102C70001DD0082940D11DE0402921D0B1F5807F29
:102C80003AD126E0B1F5004F31D006DCB1F5806FC6
:102C900025D0B1F5006F2FD124E0B1F5803F12D0DF
:102CA000B1F5003F28D111E0154A826025E00822E5
:102CB000C26022E01022C2601FE0082202611CE014
:102CC0001022026119E00822426016E010224260E0
:102CD00013E00422426010E0042242600DE004226E
:102CE00042600AE0002282610422426005E0002284
:102CF00082610422426000E000BF00BF7047000014
:102D00000101010010B50021837A012202FA03F1CA
:102D10003D4A126842F001023B4B1A603A4A1C32AB
:102D200012688A43384B1C331A60027BCAB9364A90
:102D30000C3212688A43344B0C331A604288C388C1
:102D400042EA0343304A4032847A42F834300288FF
:102D5000838842EA03432C4A4032847A02EBC4025D
:102D60005360027B012A19D1274A0C3212680A43A8
:102D7000254B0C331A604288038842EA0343224AF7
:102D80004032847A42F83430C288838842EA03436E
:102D90001D4A4032847A02EBC4025360C27A3AB9C7
:102DA000194A121D12688A43174B1B1D1A6006E050
:102DB000154A121D12680A43134B1B1D1A60028923
:102DC00032B9114A143212688A430F4B14331A6015
:102DD0000289012A06D10C4A143212680A430A4BAE
:102DE00014331A60427B012A06D1074A1C3212684A
:102DF0000A43054B1C331A60034A126822F0010291
:102E0000014B1A6010BD00000066004070B504461A
:102E10000D46002660692840002871D0B5F5807FF6
:102E20005CD010DC082D35D006DC012D20D0022D21
:102E300024D0042D72D127E0102D31D0202D35D093
:102E4000402D6BD138E0B5F5004F60D009DCB5F509
:102E5000007F49D0B5F5806F4CD0B5F5006F5DD1DE
:102E60004FE0B5F5803F2DD0B5F5003F56D12FE0AE
:102E7000A0682D4900F06AFA064651E0E068032197
:102E800000F064FA06464BE0E068082100F05EFAC4
:102E9000064645E0E068102100F058FA06463FE09B
:102EA0002069032100F052FA064639E02069082122
:102EB00000F04CFA064633E02069102100F046FA93
:102EC00006462DE06068082100F040FA064627E03B
:102ED0006068102100F03AFA064621E0A06901215D
:102EE00000F034FA06461BE0A069022100F02EFA39
:102EF000064615E0A069042100F028FA06460FE016
:102F00000FE0A069702100F021FA064608E0606831
:102F1000042100F01BFA064602E0FFE7002600BF8E
:102F200000E00026304670BD010101001AB143697E
:102F30000B43436102E043698B434361704730B503
:102F4000024600200023146824F002041460146870
:102F500044F00104146000E05B1C546804F00104B8
:102F60001CB94FF6FF74A342F6D1546804F0010473
:102F70000CB900206CE08C79012C04D1146844F069
:102F80008004146003E0146824F080041460CC7999
:102F9000012C04D1146844F04004146003E0146868
:102FA00024F0400414600C7A012C04D1146844F01D
:102FB0002004146003E0146824F0200414604C7AA8
:102FC000012C04D1146844F01004146003E0146868
:102FD00024F0100414608C7A012C04D1146844F09D
:102FE0000804146003E0146824F008041460CC7A28
:102FF000012C04D1146844F00404146003E0146844
:1030000024F0040414608C78A407CD7844EA0564A5
:103010000D7944EA05444D7944EA05540D886D1E46
:103020002C43D461146824F001041460002300E0F0
:103030005B1C546804F001041CB14FF6FF74A342FA
:10304000F6D1546804F001040CB1002000E0012026
:1030500030BD10B500F5D87303EB01131B6803F006
:1030600004031372137A53B900F5D87303EB0113F9
:103070001B6840F2FF7404EA5353136009E000F543
:10308000D87303EB01131B686FF0604404EAD303A9
:10309000536000F5D87303EB01131B6803F00203C0
:1030A000537200F5D87303EB01135B6803F00F0351
:1030B000937200F5D87303EB01135B681B0AD3749A
:1030C00000F5D87303EB01139B68D37200F5D87336
:1030D00003EB01139B681C0A147300F5D87303EB10
:1030E00001139B681C0C547300F5D87303EB011398
:1030F0009B681B0E937300F5D87303EB0113DB6819
:10310000D37300F5D87303EB0113DB681C0A147446
:1031100000F5D87303EB0113DB681C0C547400F545
:10312000D87303EB0113DB681B0E937421B9C368DA
:1031300043F02003C36003E0036943F0200303610D
:1031400010BD00000146054A914201D1142003E060
:10315000034A914200D140207047000000640040C3
:103160000068004010B502460020936803F08063B9
:10317000B3F1806F00D110E0936803F00063B3F106
:10318000006F01D1012008E0936803F08053B3F190
:10319000805F01D1022000E00420042874D002F5F1
:1031A000C07303EB00131B6803F0010402F5C07346
:1031B00003EB00131C600B7A7BB94B7A0C8843EA53
:1031C000445302F5C07404EB00142468234302F551
:1031D000C07404EB0014236010E00B7A4C6843EADF
:1031E000C4034C7A234302F5C07404EB0014246832
:1031F000234302F5C07404EB001423608B7A03F0C0
:103200000F038B7202F5C07303EB00135B6823F0AE
:103210000F0402F5C07303EB00135C6002F5C0738A
:1032200003EB00135B688C7A234302F5C07404EB54
:10323000001463608B7B1C064B7B44EA03440B7BCE
:1032400044EA0323CC7A234302F5C07404EB001450
:10325000A3608B7C1C064B7C44EA03440B7C44EA51
:103260000323CC7B234302F5C07404EB0014E3601A
:1032700002F5C07303EB00131B6843F0010402F571
:10328000C07303EB00131C6010BD000010B50246B4
:10329000002321B1012907D002290FD109E090684C
:1032A0001D4C00EA04030BE090681C4C00EA040388
:1032B00006E090681A4C00EA040301E0002300BF16
:1032C00000BF184C181BA34216D007DC83B16FF067
:1032D0008060184470B1022818D111E0B0F5007F69
:1032E00010D0114C204448B1B0F5003F0ED10BE096
:1032F00002230DE000230BE0002309E0002307E098
:10330000012305E0012303E0012301E0002300BFC6
:1033100000BFD8B210BD0000030000040003000885
:1033200000000310000100080001FFF70146054AF4
:10333000914201D1092003E0034A914200D10920C2
:103340007047000000640040006800400246002012
:1033500002EA01030BB1012000E00020704770B5C4
:1033600000254FF4803404E0802002F0E9FA00B137
:1033700003E0201EA4F10104F6D100BF0CB9032024
:1033800070BD40F2FF5002F0B1FA2846F8E70000A5
:1033900070B5044605E01648056805F0450000B123
:1033A00000E0F8E700BF042002F0CAFA20B10420D0
:1033B00002F09CFA032070BD012002F0C1FA20B196
:1033C000012002F093FA0120F5E70948243800684B
:1033D000A04201D01020EEE740F2FF5002F086FA42
:1033E00003482038006808210840C0B2E3E7000025
:1033F000342C014070B500264FF4803505E01148AB
:10340000046804F0450000B103E0281EA5F10105A1
:10341000F5D100BF15B104F0040028B10326042043
:1034200002F064FA304670BD012002F089FA18B14A
:103430000126012002F05AFA40F2FF5002F056FA3B
:103440003046F0E7342C014010B505E00B48046825
:1034500004F0450000B100E0F8E700BF042002F0EE
:103460006FFA20B1042002F041FA032010BD40F2AF
:10347000FF5002F03BFA0020F8E70000342C014036
:103480002DE9F04105460E464FF0000805E02048C2
:10349000076807F0450000B100E0F8E700BF04202E
:1034A00002F04EFA28B1042002F020FA0320BDE811
:1034B000F081012002F044FA20B1012002F016FA56
:1034C0000120F4E7124824380068A84201D01020F7
:1034D000EDE740F2FF5002F009FA0D482038046889
:1034E00004F4604018B9200C30804046DFE704F453
:1034F000005008B11320DAE704F4804008B110202E
:10350000D5E704F4004008B10F20D0E74046CEE7ED
:10351000342C014070B500264FF4803505E00F488B
:10352000046804F0450000B103E0281EA5F1010580
:10353000F5D100BF15B104F0040028B10326042022
:1035400002F0D4F9304670BD04F0400018B10026F6
:10355000402002F0CBF93046F5E70000342C014062
:1035600010B501231A4608210448FEF729FC02235E
:10357000012208210248FEF723FC10BDC8F1010812
:1035800040F201080148C07E7047000084C100205D
:1035900070B506460C4604F08000802808D104F07F
:1035A0007F0000EB800106F58E7000EBC10505E0A1
:1035B00004EB840106F55D7000EBC1050020A870E6
:1035C00004F07F002870C4F3C010687029463046AC
:1035D00005F05BFD002070BD2DE9F04106460D466B
:1035E00090461F4605F08000802808D105F07F0036
:1035F00000EB800106F58E7000EBC10407E005F0DA
:103600007F0000EB800106F55D7000EBC10405F062
:103610007F00207005F08000C0096070C4F8088049
:10362000E770607808B12078E080022F01D1002097
:1036300020712146304605F0DCFC0020BDE8F08119
:103640002DE9F04105460E461746984606F07F00E4
:1036500000EB800105F55D7000EBC104E760C4F884
:1036600014800020A061607006F07F002070E87870
:10367000012800D12761207820B92146284605F08D
:10368000DCFB03E02146284605F059FD0020BDE89B
:10369000F08108B500220092009A61F30A120092AC
:1036A00002691268009B1A4303691A6008BD70B56D
:1036B00006460C4604F08000802808D104F07F0004
:1036C00000EB800106F58E7000EBC10505E004EB10
:1036D000840106F55D7000EBC1050120A87004F0BF
:1036E0007F002870C4F3C01068702946304605F08A
:1036F000F4FC002070BD2DE9F04107460D4616464A
:10370000984605F07F0000EB800107F58E7000EB16
:10371000C1040120607005F07F002070E660266122
:103720000020A061C4F81480207820B921463846D2
:1037300005F083FB03E02146384605F000FD00203C
:10374000BDE8F08130B587B00546594C284605F0F4
:103750003AFB01A801F000FF029CE868C0680590F0
:10376000059820F4705005900598E968C8602846CF
:1037700005F00EFE03280BD10020A8704FF4007056
:10378000A880059820F4705000F5105005907EE058
:103790000120A8704020A8804648844209D34648AA
:1037A000844206D2059820F4705000F560500590D0
:1037B0006DE04148844209D34048844206D20598CE
:1037C00020F4705000F55050059060E03B48844272
:1037D00009D33B48844206D2059820F4705000F586
:1037E0004050059053E03648844209D3354884421E
:1037F00006D2059820F4705000F53050059046E050
:103800003048844209D33048844206D2059820F4D7
:10381000705000F52050059039E02B48844209D3C0
:103820002A48844206D2059820F4705000F51050C2
:1038300005902CE02548844209D32548844206D2CD
:10384000059820F4705000F5005005901FE02048C6
:10385000844209D31F48844206D2059820F4705050
:1038600000F5E050059012E01A48844209D31A4846
:10387000844206D2059820F4705000F5C05005909F
:1038800005E0059820F4705000F5A05005900598CB
:10389000E968C86000200690069820F4005000F502
:1038A000005006900698E9684861012007B030BDD5
:1038B000007A030AC0E1E4000024F400E0EC040113
:1038C00000C31801002D310140A44C0100366E01E7
:1038D00040E2950180C3C90160600B02F8B505465E
:1038E000002400200090284605F087FD064681E070
:1038F00006F0010000287BD0E1B2284600F0A8FACB
:103900000090009800F0010030B3012000FA04F7A5
:103910002869406BB84329694863002000900098EB
:1039200020F00100401C009005F1180050F8240020
:1039300000998160E1B232480068426828469047A9
:10394000E878012808D13CB940F21110405D042804
:1039500002D1284605F01CFB0098C0F3C00060B1FE
:1039600000200090009820F008000830009005F139
:10397000180050F82400009981600098C0F30010EE
:1039800060B100200090009820F0100010300090EE
:1039900005F1180050F82400009981600098C0F3E8
:1039A000801060B100200090009820F0400040306E
:1039B000009005F1180050F82400009981600098EB
:1039C000C0F3400060B100200090009820F0020099
:1039D000801C009005F1180050F8240000998160C7
:1039E0000098C0F3C01018B12146284600F044FAF0
:1039F000641C7608002E7FF47BAF0120F8BD000028
:103A000020B700207CB50446002500200190204608
:103A100005F0FBFC06466FE006F00100002869D0C7
:103A2000E9B2204605F0F9FC0190019800F0010090
:103A3000C8B300200190019820F00100401C0190C3
:103A400004F1540050F8250001998160E0780128C4
:103A500017D104F1540050F825000069009005EBDF
:103A6000850104F55D7000EBC10080680099C1F329
:103A70001201411A05EB850204F55D7000EBC200EE
:103A80008161E9B21E480068026820469047E078EC
:103A9000012808D13DB940F21110005D052802D17E
:103AA000204605F075FA0198C0F3400060B100208F
:103AB0000190019820F00200801C019004F1540054
:103AC00050F82500019981600198C0F3C00088B1C9
:103AD0000B480068816820468847002001900198C3
:103AE00020F008000830019004F1540050F825003F
:103AF000019981606D1C7608002E8DD101207CBD5E
:103B000020B700203EB50446A07A78B1D4F80C0165
:103B100000680090009820F002000090009820F0CB
:103B2000010000900099D4F80C0101600020019080
:103B3000019820F00100401C019020694068019923
:103B400088432169486009480068816920468847A0
:103B500000200290029820F0004000F10040029006
:103B60000298E168486101203EBD000020B70020B6
:103B70007CB5044600200190019820F01000103020
:103B80000190E068806901998843E1688861E06894
:103B9000006A0090009800F00F0000EB800104F52F
:103BA0005D7000EBC1050098C0F3434007282DD29B
:103BB000DFE800F02C04051D1E2C1F0027E00098F4
:103BC000C0F30A1090B10098C0F30A122046E968C9
:103BD00005F02DFCE8680099C1F30A110844E8607B
:103BE000A8690099C1F30A110844A8610FE00EE02A
:103BF0000DE0082204F2CC51204605F018FCA8691B
:103C00000099C1F30A110844A86100E000BF00BF99
:103C1000E068806901990843E168886101207CBD02
:103C200038B5044608480068C16820468847002027
:103C30000090009820F00800083000900098E1689B
:103C40004861012038BD000020B700201FB50446A0
:103C5000002000904FF48970005D009023480068B8
:103C600041692046884720698068019000200390C0
:103C7000039820F4006000F5006003900398E16869
:103C80004861A07A70B3019800F0010050B340F28F
:103C90001510005D012825D19DF80000032821D1D1
:103CA00000200290029820F00100401C0290D4F8FD
:103CB0000C01006802990843D4F80C1108600298BE
:103CC00020F00200801C0290D4F80C0100680299D8
:103CD0000843D4F80C1108600548006840F006005D
:103CE00003490860012004B010BD000020B7002087
:103CF00010ED00E030B587B0044600200290069039
:103D00000590049003900190029820F00100401C5F
:103D10000290206940680299884321694860002127
:103D2000204605F00BFB00250BE0FF2104F11800F5
:103D300050F82500816004F1540050F8250081609E
:103D40006D1C6078A842F0D84FF0FF312069816186
:103D500006986FF30F00401C0690069880B200F59D
:103D60008030069006992069C161059820F008000E
:103D700008300590059820F00100401C059005983A
:103D800020F00200801C059005992069416104988B
:103D900020F00100401C0490049820F00800083036
:103DA0000490049820F00200801C0490049920697B
:103DB0000161206900680390039820F4FE6003907D
:103DC000039920690160204605F0E2F80020019087
:103DD000019820F4805000F5805001900198E1682E
:103DE000486104480068016920468847012007B0FF
:103DF00030BD000020B7002038B5044600200090F8
:103E000007480068C16920468847009820F4801060
:103E100000F5801000900098E1684861012038BDED
:103E200020B7002038B504460020009007480068FD
:103E3000016A20468847009820F4001000F5001021
:103E400000900098E1684861012038BD20B700204B
:103E500030B5024615692B6915696C6B24FA01F5BA
:103E600005F0010543EAC51302F1180555F8215084
:103E7000AD6805EA030030BD2DE9F84306460F465C
:103E800000250020009007EB870106F58E7000EBFF
:103E9000C104D4E90501451AA068A84200D2A5686A
:103EA000E81C4FEA900806F1180050F827008069D6
:103EB000009029E0D4E90501451AA068A84200D283
:103EC000A568E81C4FEA9008ABB2FAB23046E16848
:103ED00005F0C1FAE0682844E060A0692844A061C8
:103EE00006F1180050F8270080690090D4E9050118
:103EF000884209D12178012000FA01F93069406B2C
:103F000020EA090031694863009880B2404506D92B
:103F1000D4E90510884202D260690028CAD1012084
:103F2000BDE8F88310B50A490A4800F019F968B1EC
:103F30000021084800F046F800224FF400610648CE
:103F400003F054FB0249034800F022F810BD0000C2
:103F500000800028B8600240000400400246094B7F
:103F60009A4201D2084801E00648103801F0005397
:103F70001BB1064B0B40C36002E0044B0B40836057
:103F80007047000010640240006002407D0F7D0F0A
:103F90000246094B9A4201D2084801E0064810380F
:103FA00001F000531BB1064B0B40C36002E0044B11
:103FB0000B408360704700001064024000600240C4
:103FC0007D0F7D0F21B1026842F00102026003E023
:103FD000026822F00102026070470000016821F0CF
:103FE000010101600021016041608160C1600161E7
:103FF000212141614A49884204D13D21484A103A71
:1040000091608CE046491831884205D14FF47461C3
:10401000434A103A916082E041493031884205D1EB
:104020004FF474113E4A103A916078E03C494831AF
:10403000884205D14FF07461394A103A91606EE0C0
:1040400037496031884204D13649354A103AD16047
:1040500065E033497831884204D13349304A103A17
:10406000D1605CE02E499031884204D12F492C4A1E
:10407000103AD16053E02A49A831884205D14FF067
:104080003D51274A103AD16049E02949884204D17C
:104090003D21274A083A116041E0254918318842FC
:1040A00005D14FF47461224A083A116037E0204983
:1040B0003031884205D14FF474111D4A083A11601D
:1040C0002DE01B494831884205D14FF07461184AF0
:1040D000083A116023E016496031884204D1114941
:1040E000134A121F11601AE011497831884204D135
:1040F0000D490F4A121F116011E00D49903188429D
:1041000004D10A490A4A121F116008E00849A8317F
:10411000884204D14FF03D51054A121F116070478B
:10412000106002403D000020400F002000003D20B4
:104130001064024021B1026842F02002026003E0F4
:10414000026822F0200202607047014600200A68DF
:1041500002F001020AB1012000E0002070470000D7
:1041600070B50246002000240025124EB24201D252
:10417000114B01E00F4B103B104E0E4036B11E2686
:1041800006EAD124166806EA040502E0566906F03C
:10419000800501F000560EB15C6800E01C68084E16
:1041A000344004EA010616B10DB1012000E0002000
:1041B00070BD000010640240006002403C0F3C0FE4
:1041C0007D0F7D0F10B500220268134B1A40CC689A
:1041D0000B6823434C6923438C692343CC692343F5
:1041E0000C6A23434C6A23438C6A23434C6B23435E
:1041F0008C6B23431A430260426922F00702D1E923
:104200000B3423431A4342610B6943604B6883605C
:104210008B68C36010BD00003F801CF07047000039
:104220002DE9F04188B004460D4617461E46DDF8DC
:1042300038801C220A4901A8FCF770FA01940695FF
:1042400007974246314601A8FEF784FA01A8FEF717
:1042500064FB01A8FEF730FB08B0BDE8F081000068
:10426000E0EB010830B589B000240025002008905B
:1042700079480068FDF770FE182177480068FDF75F
:1042800025FF00207549086004900590069007906E
:104290007348011F0A1F131FCDE90032CDE9021038
:1042A0001B1F0C3A14391C3811F05EF96D498864F3
:1042B00080216B2000F018F9642017F061FF0321C2
:1042C0006B2000F011F90A2017F05AFF1021372057
:1042D00000F00AF90A2017F053FF0121382000F0FE
:1042E00003F90A2017F04CFFC0216C2000F0FCF805
:1042F0000A2017F045FF0021192000F0F5F80A20E8
:1043000017F03EFF18211B2000F0EEF80A2017F0EE
:1043100037FF18211C2000F0E7F80A2017F030FFC3
:104320001D2000F0A1F8044644F003040A2017F011
:1043300027FF21461D2000F0D7F80A2017F020FFA4
:1043400003211A2000F0D0F80A2017F019FF6A2084
:1043500000F08AF805460A2017F012FF45F0100118
:104360006A2000F0C1F80A2017F00AFF6A2000F066
:104370007BF805460A2017F003FF45F020016A206C
:1043800000F0B2F80A2017F0FBFE01210B2000F02C
:1043900013F9142017F0F4FE10210A2000F00CF994
:1043A0000A2017F0EDFE1F210A2000F005F90A206F
:1043B00017F0E6FE08AA0321102000F0B1F89DF8DE
:1043C000200080302749A1F840009DF8210080306E
:1043D000A1F842009DF822008030A1F844000A2094
:1043E00017F0CEFE10210A2000F0E6F80A2017F0A0
:1043F000C7FE5D21242000F077F80A2017F0C0FEE8
:104400008C21252000F070F80A2017F0B9FE022157
:10441000262000F069F80A2017F0B2FE8821272034
:1044200000F062F80A2017F0ABFE16210A2000F017
:10443000C3F80A2017F0A4FE0921342000F054F834
:104440000A2017F09DFE8121672000F04DF86420BE
:1044500017F096FE09B030BDF4B5002034080040D6
:1044600014B6002008CF002070B5064600240025B1
:10447000002007490860214606480068FDF702FE53
:10448000054601200449C1F89002284670BD00008D
:1044900090024042F4B50020000040422DE9F04176
:1044A00004460D4616460027B84600200C49086011
:1044B00044F080010B480068FDF7E4FD07E0414649
:1044C00008480068FDF7DEFD39467F1C7054AF4296
:1044D000F5D30120024908600020BDE8F08100000A
:1044E00090024042F4B5002070B504460D4600200D
:1044F00008490860214608480068FDF7C3FD2946C1
:1045000005480068FDF7BEFD01200449C1F890028E
:1045100070BD000090024042F4B50020000040420F
:104520002DE9FC4104460D461646002001900090FE
:1045300000278C213120FFF7D7FF022017F020FE43
:1045400034E09DF804002044C1B23220FFF7CCFFD4
:10455000022017F015FE80213420FFF7C5FF02204E
:1045600017F00EFE0EE03620FFF77EFF0090384673
:10457000791C8FB2322802DD0220BDE8FC810220C6
:1045800017F0FEFD9DF8000000F040000028EAD082
:104590003520FFF769FF9DF804107054022017F0D2
:1045A000EFFD9DF80400401CC0B201909DF804008E
:1045B000A842C6DB0020E0E72DE9F04104460E46A4
:1045C000002700250C213120FFF78EFF022017F075
:1045D000D7FD21463220FFF787FF022017F0D0FDDC
:1045E00031463320FFF780FF022017F0C9FD8021FC
:1045F0003420FFF779FF022017F0C2FD0EE03620CD
:10460000FFF732FF05463846791C8FB2322802DDAB
:104610000220BDE8F081022017F0B2FD05F0400055
:104620000028ECD005F0100008B10320F1E70020CD
:10463000EFE700002DE9F04188B004460D4616462C
:104640001F46DDF838800194079506964FF4E13057
:1046500002900021ADF80C10ADF80E10ADF810105E
:104660000C21ADF812100021ADF814104246394665
:1046700001A8FEF76FF8002240F22441054803F03C
:10468000D1FB012240F22551024803F0CBFB08B0D8
:10469000BDE8F081007800400A784B7842EA0322B6
:1046A000C2F30A02A2F5806202804A78D2108B78A7
:1046B00042EA4312C2F30A02A2F5806242808A787B
:1046C0009211CB7842EA83020B7942EA8322C2F349
:1046D0000A02A2F5806282800A7952104B7942EA7E
:1046E000C312C2F30A02A2F58062C2800A7C4B7C2C
:1046F00042EA0322C2F30A02A2F580620281B0F903
:1047000000200A2A06DAB0F9002012F10A0F01DDB2
:1047100000220280B0F902200A2A06DAB0F902204B
:1047200012F10A0F01DD00224280B0F904200A2AAA
:1047300006DAB0F9042012F10A0F01DD00228280AE
:10474000B0F906200A2A06DAB0F9062012F10A0F9B
:1047500001DD0022C280B0F908200A2A06DAB0F989
:10476000082012F10A0F01DD002202814A7912119C
:10477000920882724A79C2F30112C2728A79CB79A5
:1047800042EA032212B202830A7A4B7A42EA0322F5
:1047900013B243838A7ACB7A42EA032213B2838329
:1047A000038BC3830B7B222213544B7B2322135492
:1047B0008A7BCB7B42EA032282847047F0B587B0C4
:1047C00004460D4616461F460094002005900695A7
:1047D0000D4801900021ADF80810ADF80A104FF413
:1047E0008061ADF80C100421ADF80E100021ADF879
:1047F00010103A4631466846FDF7ACFF6846FEF7B2
:104800005BF807B0F0BD0000A08601002DE9F04183
:1048100088B004460D4616461F46DDF838800194E0
:10482000079506964FF4E13002900021ADF80C1088
:10483000ADF80E10ADF810100C21ADF812100021DB
:10484000ADF814104246394601A8FDF783FF002257
:1048500040F22441094803F0E5FA012240F22551D3
:10486000064803F0DFFA4FF001110548FDF7E0FAC2
:1048700001200449086008B0BDE8F081007C0040D8
:1048800070F101088C82414210B5012000F09AF8C5
:1048900028B1012000F08AF8012000F08DF810BD49
:1048A00010B54FF4804000F08DF830B34FF48040E5
:1048B00000F07CF84FF4804000F07EF81848406823
:1048C000401C17494860174890ED090AB5EEC00A28
:1048D000F1EE10FA04DD08468068401C88600CE0A8
:1048E000104890ED090AB5EEC00AF1EE10FA04D2B4
:1048F0000B488068401E0A4988604FF4005000F061
:1049000061F860B14FF4005000F050F84FF40050DF
:1049100000F052F802480068401C0149086010BDD0
:1049200028E70020D0B8002010B5022000F04AF897
:1049300028B1022000F03AF8022000F03DF810BD46
:1049400010B5042000F03EF828B1042000F02EF845
:10495000042000F031F810BD10B5082000F032F846
:1049600038B1082000F022F8082000F025F800F007
:104970008BFE10BD10B5102000F024F828B11020D7
:1049800000F014F8102000F017F810BD10B54FF427
:10499000807000F017F838B14FF4807000F006F81E
:1049A0004FF4807000F008F810BD00000149086065
:1049B00070470000143C0140014908607047000046
:1049C000143C014001460020034A12680A400AB123
:1049D000012000E000207047143C014000212349E1
:1049E0008279002A3AD00A46126803689A430B4635
:1049F0001A600A1D126803689A430B1D1A60027937
:104A000011440A6803681A430A60184A0832126897
:104A100003689A43154B08331A601A1D126803681D
:104A20009A43124B0C331A604279102A0ED11A1F86
:104A3000126803681A430D4B08331A601A1D126876
:104A400003681A43094B0C331A600DE00749427999
:104A500011440A6803681A430A6005E002791144A8
:104A60000A6803689A430A6070470000003C0140EE
:104A700001490860704700000C3C024030B1074912
:104A8000096841F48061054A116005E0034909683D
:104A900021F48061014A116070470000003C02402F
:104AA0000348006840F480500149086070470000E6
:104AB000003C024070B504460A460026092502B9AA
:104AC00009E0012A01D1160205E0022A01D11602ED
:104AD00001E04FF4407600F09FF80546092D28D1FB
:104AE0001548006820F440701349086008460068C3
:104AF000304308600846006820F0F8000860084667
:104B0000006844F0020108430B4908600846006849
:104B100040F48030086000F07FF8054606480068E1
:104B200020F00200044908600846006820F0F80000
:104B30000860284670BD0000103C0240092013495F
:104B4000096801F48031B1F5803F01D101201CE0FA
:104B50000E49096801F0100109B1062015E00B4962
:104B6000096801F4807109B102200EE00749096863
:104B700001F0EF0109B1072007E00449096801F0DD
:104B8000020109B1082000E0092070470C3C0240F6
:104B90000348006840F00040014908607047000089
:104BA000103C024030B502460C46092500F034F8AE
:104BB0000546092D19D10E48006820F440700C49B3
:104BC00008600846006840F4007008600846006805
:104BD00040F001000860146000F01EF8054604482B
:104BE000006820F0010002490860284630BD00003E
:104BF000103C02400548006800F0004028B104481D
:104C000002490C390860034808607047103C0240B4
:104C100023016745AB89EFCD08B509200090FFF768
:104C20008DFF009002E0FFF789FF00909DF80000E3
:104C30000128F8D09DF8000008BD00002DE9FC41D6
:104C400007460D4600260024002000900190082011
:104C50005B49086010204860402088600020C860E0
:104C60004FF480600861084600F0B6FE1020FEF7A1
:104C70008FFB044614B12046BDE8FC8151480088F2
:104C800000044F49086037204860402088600020B9
:104C9000C8604FF480600861084600F09DFE372030
:104CA000FEF776FB04460CB12046E5E74FF0FF30F7
:104CB0004549086008204860302088600220C860AC
:104CC0000020086101204861084600F01FFE002016
:104CD0003B49086033204860402088600020C8605D
:104CE0004FF480600861084600F076FE3320FEF73E
:104CF0004FFB04460CB12046BEE70CE04FF4001019
:104D000000F01EFE38B1314800684DF82600761CD0
:104D1000022E00D307E02D484C38006840F22A618B
:104D200008400028EAD000BF082000F009FE20B1AA
:104D3000082000F0DBFD04209EE7022000F000FECA
:104D400020B1022000F0D2FD022095E7202000F0E3
:104D5000F7FD20B1202000F0C9FD06208CE74FF4BC
:104D6000007000F0EDFD28B14FF4007000F0BEFDC2
:104D7000072081E740F2FF5000F0B8FD00980006E0
:104D8000009901F47F4140EA0120009901F47F017C
:104D900040EA1120009940EA11606860019800061D
:104DA000019901F47F4140EA0120019901F47F015A
:104DB00040EA1120019940EA1160286020465BE733
:104DC00038D100203CB600204CD10020802C01407E
:104DD000F0B50A4600210023002400BF3DE0012574
:104DE00005FA01F3156805EA03049C4234D105680D
:104DF0004F000326BE40B543056015794E00B5400F
:104E00000668354305601579012D02D01579022D0C
:104E100016D185684F000326BE40B543856055799D
:104E20004E00B540866835438560456801268E4052
:104E3000B5434560456896798E40B6B235434560C6
:104E4000C5684F000326BE40B543C560D5794E0006
:104E5000B540C6683543C560491C1029BFD3F0BDB5
:104E6000F0B5002300244D07ED0E02FA05F3CE1035
:104E700000F1200555F826504E07F70E0F26BE40CC
:104E8000B543CF1000F1200646F82750CE1000F1B0
:104E9000200555F8265045EA0304CE1000F1200500
:104EA00045F82640F0BD01464A68B2F5807F3BD008
:104EB00012DC102A30D008DC012A25D0022A25D0A5
:104EC000042A25D0082A3FD124E0202A26D0402ACF
:104ED00026D0802A38D125E0B2F5805F2CD009DCBD
:104EE000B2F5007F22D0B2F5806F21D0B2F5006F0D
:104EF0002AD11FE0B2F5005F20D0B2F5804F1FD05D
:104F0000B2F5004F20D11DE000201DE001201BE084
:104F1000022019E0032017E0042015E0052013E02B
:104F2000062011E007200FE008200DE009200BE02B
:104F30000A2009E00B2007E00C2005E00D2003E02B
:104F40000E2001E00F2000BF00BF704770B504467F
:104F50000D462046FFF7A7FF06462A463146206841
:104F6000FFF77EFF70BD01464A68B2F5807F3BD0F7
:104F700012DC102A30D008DC012A25D0022A25D0E4
:104F8000042A25D0082A3FD124E0202A26D0402A0E
:104F900026D0802A38D125E0B2F5805F2CD009DCFC
:104FA000B2F5007F22D0B2F5806F21D0B2F5006F4C
:104FB0002AD11FE0B2F5005F20D0B2F5804F1FD09C
:104FC000B2F5004F20D11DE000201DE001201BE0C4
:104FD000022019E0032017E0042015E0052013E06B
:104FE000062011E007200FE008200DE009200BE06B
:104FF0000A2009E00B2007E00C2005E00D2003E06B
:105000000E2001E00F2000BF00BF704701461B4B80
:105010000A689A4201D100202EE0194B0A689A4290
:1050200001D1012028E0174B0A689A4201D10220E1
:1050300022E0154B0A689A4201D103201CE0134B71
:105040000A689A4201D1042016E0114B0A689A427C
:1050500001D1052010E00F4B0A689A4201D10620C9
:105060000AE00D4B0A689A4201D1072004E00B4B7D
:105070000A689A4200D108207047000000000240F0
:105080000004024000080240000C024000100240F0
:105090000014024000180240001C024000200240A0
:1050A00001464A68B2F5807F3BD012DC102A30D02E
:1050B00008DC012A25D0022A25D0042A25D0082A76
:1050C0003FD124E0202A26D0402A26D0802A38D179
:1050D00025E0B2F5805F2CD009DCB2F5007F22D04C
:1050E000B2F5806F21D0B2F5006F2AD11FE0B2F582
:1050F000005F20D0B2F5804F1FD0B2F5004F20D115
:105100001DE006201DE007201BE0082019E0092013
:1051100017E00A2015E0172013E0172011E01720F0
:105120000FE017200DE017200BE0282009E02820D1
:1051300007E0282005E0282003E0282001E02820BF
:1051400000BF00BF7047000070B503460C4619460B
:1051500000200BE01A4D05EBC00535F81150194E33
:1051600036883544174E3580451CE8B20A28F1DBF5
:105170001448008800EE100AB8EE400AF2EE040A65
:1051800080EE201A104880ED001A90ED000ADFED45
:105190000F0A20EE200ADFED0E0A80EE201A82EDC3
:1051A000001A92ED000A0B4880ED0A0A9FED0A0AE8
:1051B000054880ED000A0020024D288070BD0000E7
:1051C00074C200202AA900202CA9002033335340A8
:1051D00000F07F4518C200200000000001460020BA
:1051E0002C4A914203D2B1F1006F00D350E02A4A19
:1051F000914204D2274A914201D3082048E0274A2D
:10520000914204D2244A914201D3102040E0244A22
:10521000914204D2214A914201D3182038E0214A18
:10522000914204D21E4A914201D3202030E01E4A0E
:10523000914204D21B4A914201D3282028E01B4A04
:10524000914204D2184A914201D3302020E0184AFA
:10525000914204D2154A914201D3382018E0154AF0
:10526000914204D2124A914201D3402010E0124AE6
:10527000914204D20F4A914201D3482008E00F4ADC
:10528000914204D20C4A914201D3502000E05820B0
:1052900070470000004000080080000800C00008BF
:1052A00000000108000002080000040800000608D1
:1052B0000000080800000A0800000C0800000E08A2
:1052C00030B5034613B94FF6FF7030BD09E013F84F
:1052D000014B82EA0400C0B2054D35F8100080EAA7
:1052E0002222081EA1F10101F1D11046EDE70000D4
:1052F000E0E9010830B5034605E013F8010B80EA48
:1053000002040448025D081EA1F10101F5D1104616
:1053100030BD0000E0E801080348006800F001002B
:1053200000B100BE00BFFEE7F0ED00E01CB5044692
:105330000020019000902248008800042149086064
:105340000D204860402088600020C8604FF48060D5
:105350000861084600F040FB1B480068009002E02E
:10536000194800680090009800F045000028F7D028
:10537000012000F0E5FA20B1012000F0B7FA012089
:105380001CBD042000F0DCFA20B1042000F0AEFACD
:105390000320F5E70C48243800680D2801D01020C0
:1053A000EEE740F2FF5000F0A1FA0748203800680D
:1053B00001900198C0F3432020700020E0E7000036
:1053C0003CB6002038D10020342C014002680A4449
:1053D0000260D0E900239A4208DB42680260F7EEDF
:1053E000000AC0ED020AB7EE000A09E0D0ED000A9B
:1053F000B8EEE01AD0ED010AF8EEE00A81EE200ADC
:105400007047F0EE400A90ED011AD0ED031A21EE3C
:10541000211AD0ED001A01EEA01AD0ED021A90ED7B
:10542000042A01EEC21AB0EE410AC0ED030A80ED73
:10543000040A704700BFFEE77047000070B5002106
:1054400000230F22C4781CB3174C246804F4E064D2
:10545000C4F5E064C4F30721C1F10404E3B20A41D6
:1054600044789C40E1B28478144021430C07210E1B
:105470000E4C05786155047804F01F050124AC40FA
:1054800005786D11AD0005F1E025C5F8004109E092
:10549000047804F01F050124AC40054D0678761110
:1054A00045F8264070BD00000CED00E000E400E08F
:1054B00080E100E002490143024A116070470000A8
:1054C0000000FA050CED00E010B5024803F046F9C3
:1054D00010BD000010DF002029B1064A1268024307
:1054E000044B1A6004E0034A12688243014B1A60BD
:1054F000704700003038024029B1064A1268024362
:10550000044B1A6004E0034A12688243014B1A609C
:10551000704700004038024029B1064A1268024331
:10552000044B1A6004E0034A12688243014B1A607C
:10553000704700004438024029B1064A126802430D
:10554000044B1A6004E0034A12688243014B1A605C
:105550007047000024380240F0B5002100220024EA
:10556000022500260223324F3F6807F00C0121B1CB
:10557000042905D0082937D105E02E4F076036E011
:105580002D4F076033E02A4F3F1F3F68C7F3805617
:10559000274F3F1F3F6807F03F036EB1264FB7FB11
:1055A000F3F7DFF88CC0ACF1040CDCF800C0CCF3EE
:1055B000881C07FB0CF40CE01E4FB7FBF3F7DFF879
:1055C00070C0ACF1040CDCF800C0CCF3881C07FB05
:1055D0000CF4174F3F1F3F68C7F301477F1C7D0046
:1055E000B4FBF5F7076002E0124F076000BF00BF91
:1055F0000F4F3F6807F0F0010909104F7A5C076808
:10560000D74047600A4F3F6807F4E051890A0B4FC3
:105610007A5C4768D7408760054F3F6807F4604170
:10562000490B064F7A5C4768D740C760F0BD000061
:10563000083802400024F40000127A0064B600200A
:1056400041609FED030A80ED020A0022026070476C
:10565000000000000146D1E90002904205DB4868E5
:105660000860B7EE000A81ED020A91ED020ABCEE75
:10567000C00A10EE100AC0B27047002101607047E6
:10568000016070474160704710B586B018216846C8
:10569000FBF75DF816246A4621463B20FEF7FEFE26
:1056A0009DF801009DF8001040EA012000B2624917
:1056B00008809DF803009DF8021040EA012000B226
:1056C0005D4948809DF805009DF8041040EA0120DE
:1056D00000B2594988809DF807009DF8061040EAFD
:1056E000012000B2544908879DF809009DF8081070
:1056F00040EA012000B25049C8809DF80B009DF897
:105700000A1040EA012001B24B4801819DF80D00CA
:105710009DF80C1040EA012001B247484181B0F9E0
:10572000000000EE900AF8EEE00AB0EE600A43488E
:10573000FFF767FE404880ED050AB0F9020000EE71
:10574000900AF8EEE00AB0EE600A3C481430FFF729
:1057500058FE394880ED060AB0F9040000EE900AC0
:10576000F8EEE00AB0EE600A34482830FFF749FE50
:10577000314880ED070A0146B1F9060000210EF01C
:1057800033FC2D4880ED080A0146B1F908000121DB
:105790000EF02AFC284880ED090A0146B1F90A00FA
:1057A00002210EF021FC244880ED0A0A9DF80F002A
:1057B0009DF8101040EA012000B21F4988819DF831
:1057C00011009DF8121040EA012001B21A48C1816F
:1057D0009DF813009DF8141040EA012001B216480C
:1057E000018280891449B1F8401010FB01F00012C9
:1057F00000EE100AB8EEC00A0F4880ED0B0AC1890E
:10580000B0F8420011FB00F0001200EE100AB8EEF2
:10581000C00A094880ED0C0A018AB0F8440011FB67
:1058200000F0001200EE100AB8EEC00A024880ED47
:105830000D0A06B010BD000008CF0020CCBE00202D
:105840007CB50546002400200090019000260DB193
:10585000022600E000262248006800F0007008B12F
:105860000E207CBD1F49098888B26946FFF7E6F91A
:1058700004460CB12046F4E7019800F4802060B3A0
:105880001848008800041849086037204860402004
:1058900088600020C8604FF480600861084600F00E
:1058A0009BF83720FDF774FD04460CB12046D8E77D
:1058B0000D48066006200C494860402088600020A2
:1058C000C8604FF480600861084600F085F8062043
:1058D000FDF75EFD04462046C3E72520C1E7000032
:1058E000142C01403CB6002038D10020014908604A
:1058F00070470000382C01400146034A106820F030
:10590000FF00084310607047042C014000210B4B3E
:1059100002681A601B1D42681A601A1D116821F086
:10592000F701D0E902231A4303691A4343691A4372
:105930001143024A0832116070470000242C0140D4
:1059400001460020034A12680A400AB1012000E023
:1059500000207047342C01400248006800F003002A
:1059600070470000002C014010B500F08BFC10BD0A
:1059700000210A4A116847F6FF629143027D83685D
:105980001A4343681A43C3681A4303681A430369F6
:105990001A431143014A116070470000042C014072
:1059A00000200B490860091D0860091D0860091DD9
:1059B0000860074924310860091D0860091D086056
:1059C00004480349383108600020091D0860704709
:1059D000002C0140FF07C0000021094B02681A603B
:1059E0001A1D11686FF30A01D0E901231A43C36835
:1059F0001A4303691A431143014A121D116070478B
:105A0000082C01400149086070470000002C01404B
:105A100070B590B004460E46154600BF1A48FEF712
:105A200094FB0028FAD11848FEF7D8FA4FF000602E
:105A3000019016480290039404950020059006906A
:105A40004FF480600790800008908000099000204B
:105A50000A904FF440300B9004200C9003200D90DE
:105A60004FF400000E9080100F9001A90648FEF739
:105A7000A9FB20210448FEF75DFB01210248FEF747
:105A8000A1FA10B070BD000058640240802C0140A3
:105A900070B50446002516480078032802D1272552
:105AA000284670BD1248007838B1114800780128A6
:105AB00003D00F480078022817D1B4F5805F02D1D7
:105AC00027252846EDE7E0B2FFF7BAFE054665B99F
:105AD0000848006820F4C05006490860084600687D
